S01200004C6967687420537569742E7372656355
S11300000C9461000C947E000C947E000C947E0091
S11300100C947E000C947E000C947E000C947E0064
S11300200C947E000C947E000C947E000C947E0054
S11300300C947E000C947E000C94180C0C943E0CD2
S11300400C947E000C947E000C947E000C947E0034
S11300500C947E000C94560C0C947E000C947E0040
S11300600C947E000C947E0008000000BE9224498B
S1130070123EABAAAA2ABECDCCCC4C3E00000080D6
S1130080BEABAAAAAA3E00000000BF000000803F49
S11300900000000000084178D3BB4387D1133D1909
S11300A00E3CC3BD4282AD2B3E68EC8276BED98F36
S11300B0E1A93E4C80EFFFBE01C4FF7F3F0000007A
S11300C0000011241FBECFEFD8E0DEBFCDBF11E08A
S11300D0A0E0B1E0ECEAF2E202C005900D92A43295
S11300E0B107D9F721E0A4E2B1E001C01D92A6371F
S11300F0B207E1F70E9475020C9454110C940000AD
S11301001F93CF93DF93EC01162F862F90E0880F77
S1130110991F880F991F9B838A830E942D109983AE
S113012088831D821C821123E9F020E030E080E006
S11301309FEFE881F981E20FF31F9083E881F98151
S1130140E20FF31F1182E881F981E20FF31F12829B
S1130150E881F981E20FF31F13828F5F2C5F3F4F19
S11301608113E7CFDF91CF911F910895FF920F93F1
S11301701F93CF93DF93EC01F62E072F142F61E02A
S11301808BE291E00E94800061E085E291E00E94B0
S11301908000EBE2F1E0A081B1811C92A081B181E9
S11301A011961C920190F081E02D12821382E5E2F7
S11301B0F1E0A081B1818FEF8C93A081B181119680
S11301C01C920190F081E02D1282138282E0810F53
S11301D08A8390E0880F991F0E942D109983888349
S11301E0112391F0EF2DF02F22E030E080E06191B7
S11301F07191A881B981A20FB31F6D937C938F5F16
S11302002E5F3F4F8113F3CFE881F9818BE291E0B8
S113021091838083EA81F0E0E150F048EE0FFF1F04
S113022088819981E80FF91F85E291E091838083A9
S11302300E94400BDF91CF911F910F91FF90089581
S11302400F93FC01660F771F660F771F84819581DA
S1130250680F791F828193818617970710F4681BB2
S1130260790BA081B181A60FB71F11960C93A081C1
S1130270B181A60FB71F12962C9380819181FC0146
S1130280E60FF71F43830F910895CF93DF93DC01AB
S113029012968D919C91139796958795969587952F
S11302A08823C9F0E1E0F0E090E0CD91DC91119772
S11302B0CE0FDF1F2883CD91DC911197CE0FDF1F66
S11302C04983CD91DC911197CE0FDF1F6A839F5F25
S11302D03496981750F3DF91CF910895FC018481EF
S11302E0958124E0629F800D911D11249583848360
S11302F0228133818217930720F0821B930B95830D
S113030084830895FC01228133813695279536959F
S11303102795F22FF61B6F2F0E946E010895FC01A2
S11303206281808191810E94480B08952F923F92AF
S11303304F925F926F927F928F929F92AF92BF92F1
S1130340CF92DF92EF92FF920F931F93CF93DF939D
S1130350CDB7DEB72C970FB6F894DEBF0FBECDBF76
S11303606C017A836983542E622E702EE12CF12C59
S113037011E0412C0F2EF3E18F2E912CF02DCB01A7
S113038006969C838B83FB013C96FE83ED830C963F
S113039098878F833C96FA87E987FC86EB86EE2460
S11303A0E394F12C0B8402C0EE0CFF1C0A94E2F7D8
S11303B0F601808191818E219F21412F892B09F49F
S11303C0442D54018B859C85A81AB90A479D002D9C
S11303D01124469D202D1124459D402D1124B50145
S11303E089819A810E942001F601828193818E2164
S11303F09F21412F892B09F4442D2B843C84479D54
S1130400002D1124469D202D1124459D402D11249D
S11304106B857C858B819C810E942001F6018481FF
S113042095818E219F21412F892B09F4442D479DCD
S1130430002D1124469D202D1124459D402D11246D
S1130440B5018D819E810E942001F60186819781EC
S11304508E219F21412F892B09F4442D479D002D86
S11304601124469D202D1124459D402D1124622DDB
S1130470732D8F8198850E942001F60180859185D6
S1130480E822F922412FEF2809F4442D479D002D3D
S11304901124469D202D1124459D402D1124B50184
S11304A089859A850E9420018B859C8501969C876D
S11304B08B87409709F073CF2C960FB6F894DEBF64
S11304C00FBECDBFDF91CF911F910F91FF90EF90A1
S11304D0DF90CF90BF90AF909F908F907F906F9060
S11304E05F904F903F902F900895CF93DF93CDB7B7
S11304F0DEB7CE59D1090FB6F894DEBF0FBECDBF1B
S11305008AE0E6E0F1E0DE01A45BBF4F01900D92CA
S11305108A95E1F78AE0E0E1F1E0DE01AA5ABF4FF3
S113052001900D928A95E1F78AE0EAE1F1E0DE01BB
S1130530A05ABF4F01900D928A95E1F70E948A0B51
S1130540579884B1897F84B95F9A85B1866085B9EB
S11305508E01095C1F4F9E01215E3F4FAC963FAF59
S11305602EAFAC97AE014F5F5F4F7A0164E1C701D4
S11305700E948000D801ED92FD928D01B6E0EB0E51
S1130580F11CAC96EEADFFADAC97EE16FF0671F71D
S11305905E01FFE1AF0EB11C6BE1C5010E9480005A
S11305A06E0125E2C20ED11C6BE1C6010E948000DF
S11305B07E013BE2E30EF11C66E2C7010E9480006B
S11305C08E010F5C1F4F66E2C8010E9480002396D3
S11305D0BFAEAEAE23972596DFAECEAE2597279657
S11305E0FFAEEEAE279729961FAF0EAF299749E0CD
S11305F0BE01695C7F4FCE01875B9F4F0E94B600AE
S11306004FEF5FEFCD56DF4F59834883C359D04036
S1130610C956DF4F19821882C759D040CB56DF4FD5
S113062019821882C559D0400F2EF4E64F2E512C52
S1130630612C712CF02DCE01845B9F4FAE969FAF41
S11306408EAFAE97DE01AA5ABF4FE096BFAFAEAFF2
S1130650E097FE01E05AFF4FE296FFAFEEAFE2975C
S1130660510112C0E896AEACBFACE897EA968EACE6
S11306709FACEA97EC962EAD3FADEC97CF56DF4F8B
S113068039832883C159D04099B19095991F9927EE
S1130690991F199902C082E001C080E0982B1A9931
S11306A002C084E001C080E0982BC657DF4F9883D6
S11306B0CA58D0406091490170914A0180E090E0AD
S11306C00E94AD0D0E941C0E20E030E048EE51E483
S11306D00E945C0E6B017C0120E030E0A9010E94C5
S11306E0130E18163CF4C701B6010E94810D262F83
S11306F0872F02C020E080E0E3962FAFE397E496D3
S11307008FAFE497E4964EAD5FADE497493C510555
S113071034F088EC90E0E4969FAF8EAFE497E896CF
S11307208EAD9FADE8970197E3963FADE397E496CE
S11307302FADE497E496AEADBFADE497A817B90723
S113074014F4382F292FE7963FAFE797E8962FAF99
S1130750E89760914B0170914C0180E090E00E9419
S1130760AD0D0E941C0E20E030E048EE51E40E94E2
S11307705C0E6B017C0120E030E0A9010E94130EA5
S113078018163CF4C701B6010E94810D262F872F4D
S113079002C020E080E0222E382EB9EC2B16310462
S11307A02CF00F2EF8EC2F2E312CF02DC557DF4FE7
S11307B088819981CB58D0400197322D232D28165A
S11307C0390614F4382F292FC557DF4F3883CB58F7
S11307D0D040C457DF4F2883CC58D04060914D019E
S11307E070914E0180E090E00E94AD0D0E941C0EBD
S11307F020E030E048EE51E40E945C0E6B017C0185
S113080020E030E0A9010E94130E18163CF4C70141
S1130810B6010E94810D262F872F02C020E080E0C0
S1130820E5962FAFE597E6968FAFE697E696EEADA1
S1130830FFADE697E93CF10534F028EC30E0E696AC
S11308403FAF2EAFE697C357DF4F88819981CD58CC
S1130850D0400197E5963FADE597E6962FADE69734
S1130860E6964EAD5FADE6974817590714F4382F56
S1130870292FC357DF4F3883CD58D040C257DF4F9D
S11308802883CE58D04060914F017091500180E090
S113089090E00E94AD0D0E941C0E20E030E048EE76
S11308A051E40E945C0E6B017C0120E030E0A90160
S11308B00E94130E18163CF4C701B6010E94810D64
S11308C0262F872F02C020E080E0022F182F093C3A
S11308D0110514F008EC10E0EA968EAD9FADEA978E
S11308E00197302F212F0817190714F4382F292FB7
S11308F0E9963FAFE997EA962FAFEA9760915101E5
S11309007091520180E090E00E94AD0D0E941C0E97
S113091020E030E048EE51E40E945C0E6B017C0163
S113092020E030E0A9010E94130E18163CF4C70120
S1130930B6010E94810D262F872F02C020E080E09F
S1130940C22ED82E59ECC516D1042CF00F2EF8EC7B
S1130950CF2ED12CF02DEC968EAD9FADEC97019758
S11309603C2D2D2DC816D90614F4382F292FEB96BB
S11309703FAFEB97EC962FAFEC97C058DF4F288131
S11309803981C058D0402A503109C258DF4F88817C
S11309909981CE57D0400A97EE964EAD5FADEE9753
S11309A045505109552314F440E050E0E8966EADEB
S11309B07FADE8976A197B09EE965FAF4EAFEE976D
S11309C04617570724F4EE967FAF6EAFEE973323A6
S11309D014F420E030E0EA964EAD5FADEA97481992
S11309E05909C058DF4F39832883C058D040241791
S11309F0350734F4C058DF4F59834883C058D0407A
S1130A00992314F480E090E0EC962EAD3FADEC9782
S1130A10CF56DF4FA881B981C159D0402A1B3B0B67
S1130A20C258DF4F99838883CE57D04082179307EB
S1130A3034F4C258DF4F39832883CE57D040CA5785
S1130A40DF4FE881F981C658D040CF01AA2797FD2E
S1130A50A095BA2FAC01BD01440F551F661F771F27
S1130A60840F951FA61FB71FAC01BD01440F551F6E
S1130A70661F771F440F551F661F771F840F951F2E
S1130A80A61FB71FBC01CD01660F771F881F991FD2
S1130A90A30192010E94ED0F49015A01E4968EAD23
S1130AA09FADE497820D931D0F2EFAE0EF2EF12CEB
S1130AB0F02DB7010E94B70F28E2EE964EAD5FAD60
S1130AC0EE97249FC001259F900D1124DB01A80FF0
S1130AD0B91F26E430E00E941B10A30192010E947A
S1130AE0ED0FD501C401820F931FA41FB51FCA5770
S1130AF0DF4F88839983AA83BB83C658D04028EDEF
S1130B00EE964EAD5FADEE972403C001259F900D88
S1130B101124E4969FAF8EAFE497CE57DF4FA881A0
S1130B20B981C258D0404D01AA2497FCA094BA2C94
S1130B30D501C401880F991FAA1FBB1F880E991ED7
S1130B40AA1EBB1ED501C401880F991FAA1FBB1F73
S1130B50880F991FAA1FBB1F880E991EAA1EBB1EB1
S1130B60C501B401660F771F881F991FA301920165
S1130B700E94ED0F49015A01E696EEADFFADE697EE
S1130B802E0E3F1EC101800F911FB7010E94B70FA7
S1130B90E496AEADBFADE497A60FB71F2CEEC258D6
S1130BA0DF4F48815981CE57D0402403C001259F8F
S1130BB0900D1124A80FB91FC058DF4F48815981E7
S1130BC0C058D0402403C001259F900D1124A80FC4
S1130BD0B91F26E430E00E941B10A30192010E9479
S1130BE0ED0FD501C401820F931FA41FB51FCE576B
S1130BF0DF4F88839983AA83BB83C258D040C157EF
S1130C00DF4FE881F981CF58D040CF01AA2797FD63
S1130C10A095BA2FAC01BD01440F551F661F771F65
S1130C20840F951FA61FB71FAC01BD01440F551FAC
S1130C30661F771F440F551F661F771F840F951F6C
S1130C40A61FB71FBC01CD01660F771F881F991F10
S1130C50A30192010E94ED0F49015A01C801959523
S1130C6087958C0D9D1DB7010E94B70FE496AEAD1C
S1130C70BFADE497A60FB71F24E1C258DF4F4881E8
S1130C805981CE57D040249FC001259F900D112437
S1130C90A80FB91FC058DF4FE881F981C058D04070
S1130CA02E9FC0012F9F900D1124A80FB91F26E479
S1130CB030E00E941B10A30192010E94ED0FD501A8
S1130CC0C401820F931FA41FB51FCA57DF4F288189
S1130CD03981C658D040332334F4CA57DF4F1982C0
S1130CE01882C658D040CE57DF4F48815981C25828
S1130CF0D040552334F4CE57DF4F19821882C2589E
S1130D00D040C157DF4F99838883CF58D04099236F
S1130D1034F4C157DF4F19821882CF58D040C657D8
S1130D20DF4F5881CA58D040513009F04FC4E8967B
S1130D302EAD3FADE897ADECBCEC0E940C107C01ED
S1130D40F694E794F694E794F694E7941E2DAB801A
S1130D50BC80B694A794B694A794AA94EE2089F084
S1130D60CA2CD12CB12C00E020E04FEFB601CE010B
S1130D7001960E942001B39481E0C81AD108B116EB
S1130D8090F3FF248B819C81969587959695879502
S1130D90E816F906C0F4EA2CF12CB701611B7109BD
S1130DA000E020E040E0CE0101960E9420011F5F98
S1130DB0212F30E08B819C81969587959695879518
S1130DC02817390750F3C557DF4F28813981CB588D
S1130DD0D040ADECBCEC0E940C107C01F694E7947E
S1130DE0F694E794F694E7941E2DEE2079F0C12C46
S1130DF0D12C00E02FEF4FEFB601CE0107960E94F1
S1130E0020019FEFC91AD90AC11698F3B7017727B1
S1130E1089859A8596958795969587956817790714
S1130E2098F400E020E040E0CE0107960E94200103
S1130E301F5F612F70E089859A85969587959695B1
S1130E4087956817790768F3C357DF4F288139817D
S1130E50CD58D040ADECBCEC0E940C107C01F69453
S1130E60E794F694E794F694E7941E2DAF84B8883B
S1130E70B694A794B694A794AA94EE2089F0CA2CA9
S1130E80D12CB12C00E02FEF40E0B601CE010D963D
S1130E900E942001B394A1E0CA1AD108B11690F3BC
S1130EA0FF248F8598899695879596958795E8165A
S1130EB0F906C0F4EA2CF12CB701611B710900E0BA
S1130EC020E040E0CE010D960E9420011F5F212FFB
S1130ED030E08F85988996958795969587952817FC
S1130EE0390750F3EA962EAD3FADEA97ADECBCEC72
S1130EF00E940C107C01F694E794F694E794F6941F
S1130F00E7941E2DEE2079F0C12CD12C0FE72FEFA2
S1130F1040E0B601CE0143960E942001BFEFCB1AF8
S1130F20DB0AC11698F3B70177278D899E899695B8
S1130F308795969587956817790798F400E020E0DF
S1130F4040E0CE0143960E9420011F5F612F70E0B4
S1130F508D899E89969587959695879568177907C3
S1130F6068F3EC962EAD3FADEC97ADECBCEC0E9473
S1130F700C107C01F694E794F694E794F694E794C5
S1130F801E2DAB8CBC8CB694A794B694A794AA944B
S1130F90EE2089F0CA2CD12CB12C0FEF20E040E0D8
S1130FA0B601CE0149960E942001B394E1E0CE1A25
S1130FB0D108B11690F3FF248B8D9C8D969587955F
S1130FC096958795E816F906C0F4EA2CF12CB7013A
S1130FD0611B710900E020E040E0CE0149960E94C7
S1130FE020011F5F212F30E08B8D9C8D9695879576
S1130FF0969587952817390750F3CB56DF4F2881EC
S11310003981C559D0402F5F3F4FCB56DF4F3983CD
S11310102883C559D040243031050CF493C061E0D5
S1131020CE014F960E94820161E0CE0185960E9416
S1131030820161E0CE018B960E94820161E0CE01C3
S1131040C1960E948201C157DF4F3881CF58D040EA
S1131050C057DF4F2881C059D040C157DF4F488166
S11310605981CF58D040CE57DF4F88819981C258DB
S1131070D0404817590754F4CE57DF4F3881C2582F
S1131080D040CD57DF4F2881C358D040832F922FB3
S1131090CA57DF4FA881B981C658D0408A179B0729
S11310A00CF4CD0121E08F3F08F420E030E012166B
S11310B0130614F021E030E03327C157DF4F888155
S11310C09981CF58D040B9010E94B70FE62ECE5770
S11310D0DF4F88819981C258D040B9010E94B70F6F
S11310E0F62ECA57DF4F88819981C658D040B9017E
S11310F00E94B70F162F0E2D2F2D462F60E070E0A3
S1131100CE014F960E9420012F2D412F60E070E008
S1131110CE0185960E9420012F2D412F60E070E0C2
S1131120CE018B960E9420012F2D412F60E070E0AC
S1131130CE01C1960E942001CB56DF4F198218823E
S1131140C559D040CE01875B9F4F0E948F01222456
S11311502394312C2FC2C657DF4FB881CA58D040D0
S1131160B43008F045C2CD56DF4F39822882C359C6
S1131170D04078CAC657DF4F8881CA58D0408250C1
S1131180823008F039C1C657DF4FE881CA58D040D1
S1131190E23011F410E201C01FE7CB80DC80D6946A
S11311A0C794D694C794CA94EC2CF12C5701FDE053
S11311B0AF1AB1086701460100E0212F412FB701A2
S11311C0CE0101960E94200121E0E21AF108EA14FE
S11311D0FB0489F78B819C81C89708F413C20F2EF6
S11311E0FDE0FF2EF02DB4016F19710900E020E03D
S11311F040E0CE0101960E942001F3942F2D30E0AF
S11312008B819C81969587959695879528173907A4
S113121050F3F8C100E0212F412FB701CE0107960A
S11312200E9420013FEFE31AF30A4FE0E416F104B1
S113123089F789859A8580349105C8F00F2EFFE0DF
S1131240FF2EF02D6FE070E000E020E040E0CE01E2
S113125007960E942001F3946F2D70E089859A858A
S113126096958795969587956817790768F3CF843F
S1131270D888D694C794D694C794CA948C2C912CAD
S1131280540151E1A51AB1086401760100E0212F4F
S1131290412FB401CE010D960E94200181E0881AED
S11312A091088A149B0489F78F859889883491055D
S11312B008F4ABC10F2EF1E1DF2EF02DB7016D194B
S11312C0710900E020E040E0CE010D960E9420016B
S11312D0D3942D2D30E08F85988996958795969592
S11312E087952817390750F390C100E0212F412F2B
S11312F0B701CE0143960E9420019FEFE91AF90A33
S1131300AFE0EA16F10489F78D899E89803491054E
S1131310C8F00F2EFFE0FF2EF02D6FE070E000E02C
S113132020E040E0CE0143960E942001F3946F2D0B
S113133070E08D899E89969587959695879568170F
S1131340790768F3CB8CDC8CD694C794D694C79475
S1131350CA94EC2CF12C5701BDE0AB1AB10867011B
S1131360460100E0212F412FB701CE0149960E948A
S11313702001E1E0EE1AF108EA14FB0489F78B8DF1
S11313809C8DC897D0F00F2EFDE0FF2EF02DB401F8
S11313906F19710900E020E040E0CE0149960E94F7
S11313A02001F3942F2D30E08B8D9C8D969587959D
S11313B0969587952817390750F3012F000F20E0E1
S11313C040E0602FCE014F960E94450120E040E0AE
S11313D0602FCE0185960E94450120E0412F612FA8
S11313E0CE01C1960E94450120E0412F612FCE011C
S11313F08B960E944501DEC0C657DF4FF881CA585C
S1131400D040F43008F498C0CD56DF4F288139819C
S1131410C359D0402215330509F0FAC00E94F20BDB
S1131420C756DF4F288139814A815B81C959D04031
S1131430621773078407950708F4BCC00E94F20B77
S11314409B01AC012C503E4F4F4F5F4FC756DF4FAF
S1131450288339834A835B83C959D040C657DF4FF9
S11314603881CA58D040343011F410E201C01FE76B
S1131470C956DF4F48815981C759D040411551059C
S113148009F4CFC04130510509F4DCC042305105A4
S113149061F04F5F5F4FC956DF4F59834883C75987
S11314A0D040433051058CF416C0E1965FADE1970E
S11314B0C356DF4F5883CD59D040E2968FADE297A3
S11314C0C256DF4F8883CE59D040C956DF4F1982A8
S11314D01882C759D04000E0212F412FBE016F5F11
S11314E07F4FC356DF4F8881CD59D040C256DF4F5E
S11314F09881CE59D0400E949601012F000F20E020
S113150040E0602FCE014F960E94450120E040E06C
S1131510602FCE0185960E94450120E0412F612F66
S1131520CE01C1960E94450120E0412F612FCE01DA
S11315308B960E9445013EC0C657DF4F9881CA581A
S1131540D040911137C08E010F5F1F4F20E040E063
S113155060E0C8010E9445010A5F1F4FAC96AEAD22
S1131560BFADAC97A017B10789F720E040E060E079
S1131570CE014F960E94450120E040E060E0CE019C
S113158085960E94450120E040E060E0CE01C196CE
S11315900E94450120E040E060E0CE018B960E946D
S11315A04501CE01875B9F4F0E948F018AE090E046
S11315B00E94FD0BCE01875B9F4F0E948F01CD5689
S11315C0DF4F39822882C359D0404CC8C657DF4FF9
S11315D0B881CA58D0402B2E312CCD56DF4FE8812C
S11315E0F981C359D0402E163F0609F0C3CDB3CDBF
S11315F0C657DF4F8881CA58D0408250823008F0E5
S11316000DCFC1CDE12CF12C05CEE12CF12C6DCE0A
S11316100E94F20BC956DF4F19821882C759D04075
S11316200DCFAD96FFADAD97C356DF4FF883CD59BF
S1131630D040AE962FADAE97C256DF4F2883CE5919
S1131640D04010C0AF963FADAF97C356DF4F38833D
S1131650CD59D040E0964FADE097C256DF4F488356
S1131660CE59D040C956DF4F88819981C759D0409F
S11316700196C956DF4F99838883C759D0402BCF31
S113168084B18C6284B980E58CBD81E08DBD089500
S1131690EF92FF920F931F93CF93DF93DC01ED91B1
S11316A0FC9120E030E0C0E0D0E0062F10E0E12C17
S11316B0F12C44815581420F531F62817381461777
S11316C0570710F0461B570BA081B181A40FB51F1B
S11316D04C914EBD2F5F3F4F4281538124173507F4
S11316E070F02196C017D10774F4FE01EE0FFF1FAE
S11316F0E80FF91F0190F081E02D2E2D3F2D0DB440
S113170007FEFDCFD6CFDF91CF911F910F91FF90B0
S1131710EF900895F89414BC83E085BD9AEF97BDCB
S113172092E090936E0097E490937C009FEA9093EC
S11317307A0080937B008FE380937E008AB18C676C
S11317408AB98BB183788BB92098289A1092540166
S113175010925301109256011092550110925801A3
S11317601092570110925A011092590110925C0183
S113177010925B0180E190E0A0E0B0E080935E0114
S113178090935F01A0936001B09361018093620123
S113179090936301A0936401B09365018093660103
S11317A090936701A0936801B093690180936A01E3
S11317B090936B01A0936C01B0936D0180936E01C3
S11317C090936F01A0937001B0937101789410927B
S11317D03B0110923C0110923D0110923E01109287
S11317E05D010895F89460913B0170913C018091F2
S11317F03D0190913E0178940895CF92DF92EF924B
S1131800FF927C010E94F20B9B01AC012E0D3F1D47
S1131810411D511D69017A010E94F20B6C157D0571
S11318208E059F05C8F3FF90EF90DF90CF90089549
S11318301F920F920FB60F9211248F939F93AF9321
S1131840BF9316BC80913B0190913C01A0913D0156
S1131850B0913E010196A11DB11D80933B0190936F
S11318603C01A0933D01B0933E01BF91AF919F9184
S11318708F910F900FBE0F901F9018951F920F928B
S11318800FB60F9211248F93EF93FF938BB183784C
S11318908BB9EEE6F0E080818B7F8083FF91EF913E
S11318A08F910F900FBE0F901F9018951F920F925B
S11318B00FB60F9211242F933F934F935F936F931F
S11318C07F938F939F93AF93BF93CF93DF93EF93C4
S11318D0FF93809124018F5F853019F08093240158
S11318E0FDC010922401E091780080917900F0E02D
S11318F0F82B18993BC0C0915D01D0E0CC0FDD1FDF
S1131900CD5ADE4F84E68E9F90018F9F300D1124B7
S11319103695279536952795ABE7B4E10E940C10D0
S1131920969587959983888320915D0130E0A091F5
S11319305D01B0E0AA0FBB1FAD5ABE4F8D919C91C3
S11319406FEF73E0681B790B80EF9FE30E94A30F96
S1131950CB01A0E0B0E0E901CC0FDD1FCC0FDD1F0F
S1131960C25ADE4F88839983AA83BB83A0915D0109
S1131970B0E0AA0FBB1FAD5ABE4F8D919C918E173C
S11319809F0738F5A0915D01B0E0AA0FBB1FAD5AC7
S1131990BE4F8D919C91A0915D01B0E0AA0FBB1F39
S11319A0AA0FBB1FA25ABE4F2D913D914D915C9140
S11319B0DF01A81BB90B0E942210DC01CB01689443
S11319C013F8B695A795979587951694D1F7AC011A
S11319D002C040E050E0E0915D01F0E0EE0FFF1F37
S11319E0E75BFE4F80E5849F9001859F300D1124B5
S11319F03695279536952795ABE7B4E10E940C10F0
S1131A00EC01D695C7958081918164E1689F90012E
S1131A10699F300D112436952795369527950E9498
S1131A200C1096958795C80FD91FD183C083E09178
S1131A305D01F0E0EE0FFF1FE15CFE4F80819181BC
S1131A40E0915D01F0E0EE0FFF1FEF5CFE4F9A01A5
S1131A50281B390BC90164E6689F9001699F300D0A
S1131A60112436952795369527950E940C10969546
S1131A70879591838083E0915D01F0E0EE0FFF1F75
S1131A80E15CFE4F518340834BB180915D018E5FD9
S1131A9021E030E0B90102C0660F771F8A95E2F7B2
S1131AA0CB01842B8BB986B58C5F88BDEEE6F0E064
S1131AB080818460808380915D018F5F80935D016C
S1131AC080915D01853010F010925D01ECE7F0E04B
S1131AD0808190915D01887F892B8083FF91EF91B4
S1131AE0DF91CF91BF91AF919F918F917F916F9132
S1131AF05F914F913F912F910F900FBE0F901F90C8
S1131B00189570D088F09F5790F0B92F9927B75146
S1131B10A0F0D1F0660F771F881F991F1AF0BA95AD
S1131B20C9F712C0B13081F077D0B1E0089574C024
S1131B30672F782F8827B85F39F0B93FCCF38695A3
S1131B4077956795B395D9F73EF490958095709500
S1131B5061957F4F8F4F9F4F0895E89409C097FB7D
S1131B603EF490958095709561957F4F8F4F9F4F70
S1131B709923A9F0F92F96E9BB279395F6958795B4
S1131B8077956795B795F111F8CFFAF4BB0F11F477
S1131B9060FF1BC06F5F7F4F8F4F9F4F16C088231E
S1131BA011F096E911C0772321F09EE8872F762F54
S1131BB005C0662371F096E8862F70E060E02AF095
S1131BC09A95660F771F881FDAF7880F9695879581
S1131BD097F9089557FD9058440F551F59F05F3FEA
S1131BE071F04795880F97FB991F61F09F3F79F03B
S1131BF087950895121613061406551FF2CF4695BD
S1131C00F1DF08C0161617061806991FF1CF86953E
S1131C107105610508940895E894BB276627772722
S1131C20CB0197F9089510D108F48FEF08950EF0C1
S1131C3035C142C168942CC1D5DFC8F39923D1F3CF
S1131C40C6F3DF93CF931F930F93FF92C92FDD2722
S1131C5088232AF02197660F771F881FDAF720E080
S1131C6030E040E85FEB9FE3883920F0803E30F0BD
S1131C7021968F7785D0E8E6F0E003C081D0E5E9CE
S1131C80F0E01DD18B01BE01EC01FB2E6F577109F1
S1131C907595771F880B990B62DF28E132E741E3E2
S1131CA05FE316D0AF2D9801AE01FF900F911F9105
S1131CB0CF91DF9176D036C10BD034C125D128F035
S1131CC02AD118F0952309F0E3C0F6C01124A5CF5A
S1131CD081DFA0F3959FD1F3950F50E0551F629FCC
S1131CE0F001729FBB27F00DB11D639FAA27F00D71
S1131CF0B11DAA1F649F6627B00DA11D661F829F98
S1131D002227B00DA11D621F739FB00DA11D621F7C
S1131D10839FA00D611D221F749F3327A00D611D99
S1131D20231F849F600D211D822F762F6A2F11247B
S1131D309F5750408AF0E1F088234AF0EE0FFF1FCE
S1131D40BB1F661F771F881F91505040A9F79E3F05
S1131D50510570F09DC061CF5F3FECF3983EDCF31A
S1131D60869577956795B795F795E7959F5FC1F742
S1131D70FE2B880F911D9695879597F908955058D5
S1131D80BB27AA270ED0CEC0BFD030F0C4D020F0DD
S1131D9031F49F3F11F41EF48FC00EF4E095E7FB7D
S1131DA077C0E92F17DF80F3BA1762077307840738
S1131DB0950718F071F49EF52FCF0EF4E0950B2ED5
S1131DC0BA2FA02D0B01B90190010C01CA01A00189
S1131DD01124FF27591B99F0593F50F4503E68F1E4
S1131DE01A16F040A22F232F342F4427585FF3CF25
S1131DF0469537952795A795F0405395C9F77EF4F6
S1131E001F16BA0B620B730B840BBAF09150A1F03E
S1131E10FF0FBB1F661F771F881FC2F70EC0BA0FC4
S1131E20621F731F841F48F4879577956795B7954C
S1131E30F7959E3F08F0B3CF9395880F08F0992744
S1131E40EE0F979587950895990F0008550FAA0BE3
S1131E50E0E8FEEF16161706E807F907C0F01216B9
S1131E601306E407F50798F0621B730B840B950BBC
S1131E7039F40A2661F0232B242B252B21F4089511
S1131E800A2609F4A140A6958FEF811D811D0895AE
S1131E9097F99F6780E870E060E008959F3F31F014
S1131EA0915020F4879577956795B795880F911D84
S1131EB09695879597F908959FEF80EC0895DF93A1
S1131EC0CF931F930F93FF92EF92DF927B018C01CC
S1131ED0689405C0DA2EEF01FBDEFE01E894A591BB
S1131EE02591359145915591AEF3EF015ADFFE01ED
S1131EF09701A801DA9479F7DF90EF90FF900F91A2
S1131F001F91CF91DF91089500240A9416161706A5
S1131F1018060906089500240A94121613061406D6
S1131F2005060895092E0394000C11F4882352F039
S1131F30BB0F40F4BF2B11F460FF04C06F5F7F4FF1
S1131F408F4F9F4F0895AA1BBB1B51E107C0AA1FC7
S1131F50BB1FA617B70710F0A61BB70B881F991F46
S1131F605A95A9F780959095BC01CD01089597FBEA
S1131F70072E16F4009407D077FD09D00E94A30F12
S1131F8007FC05D03EF4909581959F4F0895709578
S1131F9061957F4F0895A1E21A2EAA1BBB1BFD0178
S1131FA00DC0AA1FBB1FEE1FFF1FA217B307E40734
S1131FB0F50720F0A21BB30BE40BF50B661F771F8C
S1131FC0881F991F1A9469F760957095809590956C
S1131FD09B01AC01BD01CF010895052E97FB1EF4B2
S1131FE000940E94041057FD07D00E94CB0F07FCF9
S1131FF003D04EF40C9404105095409530952195DF
S11320003F4F4F4F5F4F0895909580957095619520
S11320107F4F8F4F9F4F0895A29FB001B39FC00180
S1132020A39F700D811D1124911DB29F700D811D00
S11320301124911D08950E940C10B7FF0895821B6E
S1132040930B08950E940C10A59F900DB49F900DC2
S1132050A49F800D911D11240895CF93DF938230A6
S1132060910510F482E090E0E0917401F091750123
S113207020E030E0A0E0B0E0309739F140815181B8
S113208048175907B8F04817590771F482819381AA
S1132090109729F013969C938E9312972CC09093CB
S11320A075018093740127C02115310531F0421761
S11320B0530718F0A901DB0101C0EF019A01BD012A
S11320C0DF010280F381E02DD7CF21153105F9F02E
S11320D0281B390B2430310580F48A819B816115DA
S11320E0710521F0FB019383828304C090937501F1
S11320F080937401FE01329644C0FE01E20FF31F87
S11321008193919322503109398328833AC02091D5
S1132110720130917301232B41F42091020130911B
S113212003013093730120937201209100013091D7
S113213001012115310541F42DB73EB74091040149
S113214050910501241B350BE0917201F09173014C
S1132150E217F307A0F42E1B3F0B2817390778F07A
S1132160AC014E5F5F4F2417350748F04E0F5F1FD9
S113217050937301409372018193919302C0E0E004
S1132180F0E0CF01DF91CF910895CF93DF930097D3
S113219009F487C0FC01329713821282C091740142
S11321A0D0917501209781F420813181280F391F46
S11321B080917201909173018217930779F5F093DE
S11321C07301E09372016DC0DE0120E030E0AE17D0
S11321D0BF0750F412964D915C9113979D014115E0
S11321E0510509F1DA01F3CFB383A2834081518110
S11321F0840F951F8A179B0771F48D919C911197F9
S1132200840F951F02969183808312968D919C91E1
S11322101397938382832115310529F4F093750173
S1132220E09374013EC0D9011396FC93EE93129788
S11322304D915D91A40FB51FEA17FB0779F48081D6
S11322409181840F951F0296D90111969C938E93C8
S11322508281938113969C938E931297E0E0F0E031
S11322608A819B81009719F0FE01EC01F9CFCE0120
S1132270029628813981820F931F20917201309137
S113228073012817390769F4309729F410927501FE
S11322901092740102C013821282D0937301C0930E
S10F22A07201DF91CF910895F894FFCFF4
S11322AC00007601200001800180FFFF0180018085
S11322BC01FF018101810181FF81FFFF0100010008
S10722CC0100FFFF0B
S903012BD0
